{
  "contractName": "College",
  "abi": [
    {
      "constant": true,
      "inputs": [],
      "name": "collegeName",
      "outputs": [
        {
          "name": "",
          "type": "bytes32"
        }
      ],
      "payable": false,
      "stateMutability": "view",
      "type": "function"
    },
    {
      "constant": true,
      "inputs": [
        {
          "name": "",
          "type": "uint256"
        }
      ],
      "name": "studentMap",
      "outputs": [
        {
          "name": "adhaar",
          "type": "uint256"
        },
        {
          "name": "studentName",
          "type": "bytes32"
        }
      ],
      "payable": false,
      "stateMutability": "view",
      "type": "function"
    },
    {
      "constant": false,
      "inputs": [],
      "name": "constuctor",
      "outputs": [],
      "payable": false,
      "stateMutability": "nonpayable",
      "type": "function"
    },
    {
      "constant": false,
      "inputs": [
        {
          "name": "adhaar",
          "type": "uint256"
        },
        {
          "name": "name",
          "type": "bytes32"
        }
      ],
      "name": "addStudent",
      "outputs": [],
      "payable": false,
      "stateMutability": "nonpayable",
      "type": "function"
    },
    {
      "constant": false,
      "inputs": [
        {
          "name": "adhaar",
          "type": "uint256"
        },
        {
          "name": "encryptedHash",
          "type": "bytes32"
        }
      ],
      "name": "addDocument",
      "outputs": [],
      "payable": false,
      "stateMutability": "nonpayable",
      "type": "function"
    },
    {
      "constant": false,
      "inputs": [
        {
          "name": "adhaar",
          "type": "uint256"
        }
      ],
      "name": "returnDocs",
      "outputs": [
        {
          "name": "",
          "type": "bytes32[]"
        }
      ],
      "payable": false,
      "stateMutability": "nonpayable",
      "type": "function"
    }
  ],
  "bytecode": "0x6060604052341561000f57600080fd5b6106088061001e6000396000f300606060405260043610610078576000357c0100000000000000000000000000000000000000000000000000000000900463ffffffff1680632b46a9b91461007d5780639aa7cf76146100b3578063b35659c6146100dc578063ceea3c78146100fe578063dfe4858a14610135578063e303bcf21461014a575b600080fd5b341561008857600080fd5b61009d600461009890369061043d565b61016c565b6040516100aa919061051b565b60405180910390f35b34156100be57600080fd5b6100c66101ea565b6040516100d3919061053d565b60405180910390f35b34156100e757600080fd5b6100fc60046100f7903690610466565b6101f0565b005b341561010957600080fd5b61011e600461011990369061043d565b61023d565b60405161012c929190610558565b60405180910390f35b341561014057600080fd5b610148610261565b005b341561015557600080fd5b61016a6004610165903690610466565b6102a3565b005b61017461035e565b6000600260008481526020019081526020016000209050806002018054806020026020016040519081016040528092919081815260200182805480156101dd57602002820191906000526020600020905b815460001916815260200190600101908083116101c5575b5050505050915050919050565b60015481565b600060026000848152602001908152602001600020905080600201805480600101828161021d9190610372565b916000526020600020900160008490919091509060001916905550505050565b60026020528060005260406000206000915090508060000154908060010154905082565b336000806101000a81548173ffffffffffffffffffffffffffffffffffffffff021916908373ffffffffffffffffffffffffffffffffffffffff160217905550565b60008060009054906101000a900473ffffffffffffffffffffffffffffffffffffffff1673ffffffffffffffffffffffffffffffffffffffff163373ffffffffffffffffffffffffffffffffffffffff161415610359578281600001819055508181600101816000191690555080600260008581526020019081526020016000206000820154816000015560018201548160010190600019169055600282018160020190805461035492919061039e565b509050505b505050565b602060405190810160405280600081525090565b8154818355818115116103995781836000526020600020918201910161039891906103f0565b5b505050565b8280548282559060005260206000209081019282156103df5760005260206000209182015b828111156103de5782548255916001019190600101906103c3565b5b5090506103ec91906103f0565b5090565b61041291905b8082111561040e5760008160009055506001016103f6565b5090565b90565b600061042182356105ba565b905092915050565b600061043582356105c4565b905092915050565b60006020828403121561044f57600080fd5b600061045d84828501610429565b91505092915050565b6000806040838503121561047957600080fd5b600061048785828601610429565b925050602061049885828601610415565b9150509250929050565b60006104ad8261058e565b8084526020840193506104bf83610581565b60005b828110156104f1576104d58683516104fd565b6104de82610599565b91506020860195506001810190506104c2565b50849250505092915050565b610506816105a6565b82525050565b610515816105b0565b82525050565b6000602082019050818103600083015261053581846104a2565b905092915050565b600060208201905061055260008301846104fd565b92915050565b600060408201905061056d600083018561050c565b61057a60208301846104fd565b9392505050565b6000602082019050919050565b600081519050919050565b6000602082019050919050565b6000819050919050565b6000819050919050565b6000819050919050565b60008190509190505600a265627a7a723058203bb40aeb8d19b1b7ef3d5acce9e93ab7b86579d10b121ff0971a21f68aa865456c6578706572696d656e74616cf50037",
  "source": "pragma solidity ^0.4.13;\npragma experimental ABIEncoderV2;\n\ncontract College {\n    address private owner; //will help in require statement part\n    bytes32 public collegeName;\n\n    modifier restricted() {\n      if (msg.sender == owner) _;\n    }\n\n    function constuctor() public {\n      owner = msg.sender;\n    }\n\n    struct Student {\n        uint256 adhaar;\n        bytes32 studentName;\n        bytes32[] encryptedDocs;\n    }\n\n    //not sure if both are needed\n    //Student[] studentList;\n  \n\n    mapping (uint256 => Student) public studentMap;\n\n   // event StudentAdded(uint256 adhaar, bytes32 name); //triggers event to web interface\n\n    function addStudent (uint256 adhaar, bytes32 name) public restricted {\n        //require (msg.sender == owner);\n        Student storage student;\n        student.adhaar = adhaar;\n        student.studentName = name;\n       studentMap[adhaar]=student;\n       // emit StudentAdded(adhaar, name); //trigger point\n    }\n\n   // event DocumentAdded (uint256 adhaar, string encryptedHash);\n\n    function addDocument (uint256 adhaar, bytes32 encryptedHash) public {\n        Student storage stu = studentMap[adhaar];\n        stu.encryptedDocs.push(encryptedHash);\n    }\n\n    function returnDocs (uint256 adhaar) public returns (bytes32[]) {\n        Student storage stu = studentMap[adhaar];\n        return (stu.encryptedDocs);\n    }\n}\n",
  "sourcePath": "/home/ugnes/Desktop/code/FinalYrProject/contracts/College.sol",
  "compiler": {
    "name": "solc",
    "version": "0.4.21+commit.dfe3193c.Emscripten.clang"
  },
  "schemaVersion": "2.0.0",
  "updatedAt": "2018-05-02T15:37:13.481Z"
}