{
  "contractName": "Main",
  "abi": [
    {
      "constant": true,
      "inputs": [],
      "name": "productIndex",
      "outputs": [
        {
          "name": "",
          "type": "uint256"
        }
      ],
      "payable": false,
      "stateMutability": "view",
      "type": "function"
    },
    {
      "inputs": [],
      "payable": false,
      "stateMutability": "nonpayable",
      "type": "constructor"
    },
    {
      "constant": false,
      "inputs": [
        {
          "name": "_name",
          "type": "string"
        },
        {
          "name": "_startPrice",
          "type": "uint256"
        },
        {
          "name": "_imageLink",
          "type": "string"
        },
        {
          "name": "_owner",
          "type": "string"
        }
      ],
      "name": "addProductToStore",
      "outputs": [],
      "payable": false,
      "stateMutability": "nonpayable",
      "type": "function"
    },
    {
      "constant": true,
      "inputs": [
        {
          "name": "_productId",
          "type": "uint256"
        }
      ],
      "name": "getProduct",
      "outputs": [
        {
          "name": "",
          "type": "uint256"
        },
        {
          "name": "",
          "type": "string"
        },
        {
          "name": "",
          "type": "uint256"
        },
        {
          "name": "",
          "type": "string"
        },
        {
          "name": "",
          "type": "string"
        }
      ],
      "payable": false,
      "stateMutability": "view",
      "type": "function"
    },
    {
      "constant": false,
      "inputs": [
        {
          "name": "_productId",
          "type": "uint256"
        }
      ],
      "name": "buy",
      "outputs": [],
      "payable": false,
      "stateMutability": "nonpayable",
      "type": "function"
    }
  ],
  "bytecode": "0x6060604052341561000f57600080fd5b60008081905550610974806100256000396000f300606060405260043610610062576000357c0100000000000000000000000000000000000000000000000000000000900463ffffffff16806368d2451114610067578063b9db15b414610153578063c897d5a6146102d5578063d96a094a146102fe575b600080fd5b341561007257600080fd5b610151600480803590602001908201803590602001908080601f0160208091040260200160405190810160405280939291908181526020018383808284378201915050505050509190803590602001909190803590602001908201803590602001908080601f0160208091040260200160405190810160405280939291908181526020018383808284378201915050505050509190803590602001908201803590602001908080601f01602080910402602001604051908101604052809392919081815260200183838082843782019150505050505091905050610321565b005b341561015e57600080fd5b610174600480803590602001909190505061047f565b60405180868152602001806020018581526020018060200180602001848103845288818151815260200191508051906020019080838360005b838110156101c85780820151818401526020810190506101ad565b50505050905090810190601f1680156101f55780820380516001836020036101000a031916815260200191505b50848103835286818151815260200191508051906020019080838360005b8381101561022e578082015181840152602081019050610213565b50505050905090810190601f16801561025b5780820380516001836020036101000a031916815260200191505b50848103825285818151815260200191508051906020019080838360005b83811015610294578082015181840152602081019050610279565b50505050905090810190601f1680156102c15780820380516001836020036101000a031916815260200191505b509850505050505050505060405180910390f35b34156102e057600080fd5b6102e8610764565b6040518082815260200191505060405180910390f35b341561030957600080fd5b61031f600480803590602001909190505061076a565b005b610329610839565b6001600080828254019250508190555060a060405190810160405280600054815260200186815260200185815260200184815260200183815250905080600160003373ffffffffffffffffffffffffffffffffffffffff1673ffffffffffffffffffffffffffffffffffffffff1681526020019081526020016000206000805481526020019081526020016000206000820151816000015560208201518160010190805190602001906103dd92919061087b565b5060408201518160020155606082015181600301908051906020019061040492919061087b565b50608082015181600401908051906020019061042192919061087b565b5090505033600260008054815260200190815260200160002060006101000a81548173ffffffffffffffffffffffffffffffffffffffff021916908373ffffffffffffffffffffffffffffffffffffffff1602179055505050505050565b60006104896108fb565b60006104936108fb565b61049b6108fb565b6104a3610839565b60016000600260008a815260200190815260200160002060009054906101000a900473ffffffffffffffffffffffffffffffffffffffff1673ffffffffffffffffffffffffffffffffffffffff1673ffffffffffffffffffffffffffffffffffffffff168152602001908152602001600020600088815260200190815260200160002060a0604051908101604052908160008201548152602001600182018054600181600116156101000203166002900480601f0160208091040260200160405190810160405280929190818152602001828054600181600116156101000203166002900480156105d55780601f106105aa576101008083540402835291602001916105d5565b820191906000526020600020905b8154815290600101906020018083116105b857829003601f168201915b5050505050815260200160028201548152602001600382018054600181600116156101000203166002900480601f0160208091040260200160405190810160405280929190818152602001828054600181600116156101000203166002900480156106815780601f1061065657610100808354040283529160200191610681565b820191906000526020600020905b81548152906001019060200180831161066457829003601f168201915b50505050508152602001600482018054600181600116156101000203166002900480601f0160208091040260200160405190810160405280929190818152602001828054600181600116156101000203166002900480156107235780601f106106f857610100808354040283529160200191610723565b820191906000526020600020905b81548152906001019060200180831161070657829003601f168201915b505050505081525050905080600001518160200151826040015183606001518460800151839350819150809050955095509550955095505091939590929450565b60005481565b6000600160006002600085815260200190815260200160002060009054906101000a900473ffffffffffffffffffffffffffffffffffffffff1673ffffffffffffffffffffffffffffffffffffffff1673ffffffffffffffffffffffffffffffffffffffff168152602001908152602001600020600083815260200190815260200160002090503373ffffffffffffffffffffffffffffffffffffffff166108fc82600201549081150290604051600060405180830381858888f19350505050151561083557600080fd5b5050565b60a0604051908101604052806000815260200161085461090f565b81526020016000815260200161086861090f565b815260200161087561090f565b81525090565b828054600181600116156101000203166002900490600052602060002090601f016020900481019282601f106108bc57805160ff19168380011785556108ea565b828001600101855582156108ea579182015b828111156108e95782518255916020019190600101906108ce565b5b5090506108f79190610923565b5090565b602060405190810160405280600081525090565b602060405190810160405280600081525090565b61094591905b80821115610941576000816000905550600101610929565b5090565b905600a165627a7a723058209f2510c61431c76ed12f0e396abccd969b260c8c84d475d6ec07e62461696b2b0029",
  "source": "pragma solidity ^0.4.13;\n\ncontract Main {\n\n uint public productIndex;\n mapping (address => mapping(uint => Product)) stores;\n mapping (uint => address) productIdInStore;\n \n\n struct Product {\n  uint id; //id of the product\n  string name; //name of the product\n  uint startPrice;// price of the product\n  string imageLink; //link of the product\n  string owner; //owenr of the product\n \n  \n }\n\n struct Buy {\n  address buyer;\n  uint productId;\n}\n\n function Main() public {\n  productIndex = 0;\n }\n\n\n function addProductToStore(string _name,uint _startPrice,string _imageLink, string _owner) public {\n  productIndex += 1;\n  Product memory product = Product(productIndex, _name,_startPrice,_imageLink,_owner);\n  stores[msg.sender][productIndex] = product;\n  productIdInStore[productIndex] = msg.sender;\n}\n\n\n\nfunction getProduct(uint _productId) view public returns (uint, string, uint,string,string) {\n  Product memory product = stores[productIdInStore[_productId]][_productId];\n  return (product.id, product.name, product.startPrice,product.imageLink,product.owner);\n}\n\nfunction buy(uint _productId) public  {\n  Product storage product = stores[productIdInStore[_productId]][_productId];\n  msg.sender.transfer(product.startPrice);\n}\n}",
  "sourcePath": "/home/ugnes/Desktop/code/FinalYrProject/contracts/Main.sol",
  "compiler": {
    "name": "solc",
    "version": "0.4.21+commit.dfe3193c.Emscripten.clang"
  },
  "schemaVersion": "2.0.0",
  "updatedAt": "2018-05-02T15:37:01.934Z"
}